:020000040800F2
:1000000000200020C1000008C7000008CB00000845
:1000100000000000000000000000000000000000E0
:1000200000000000000000000000000001010008C6
:1000300000000000000000000501000809010008A0
:10004000BD000008BD000008BD000008BD0000089C
:10005000BD000008BD000008BD000008BD0000088C
:10006000BD000008BD000008BD000008BD0000087C
:10007000BD000008BD000008BD000008BD0000086C
:10008000BD000008BD00000800000000BD00000821
:10009000BD000008BD000008BD000008BD0000084C
:1000A000BD000008BD000008BD000008BD0000083C
:1000B000BD00000800000000BD00000800BEFEE713
:1000C00010B500F025F800BEFEE704207146084296
:1000D00002D0EFF3098001E0EFF3088071460B4A8C
:1000E000104770B504000D00044800F055FB2900CE
:1000F000200000F0D3FA00BEFEE7C046FC14000862
:1001000000BEFEE700BEFEE770470000E300000807
:1001100030B583B000F006FB304B314A1360314AF2
:100120001360314B314A01E002CA02C330498B42AD
:10013000FAD32B4B1A682F4B9A4200D0FEE7294B7B
:100140001A682D4B9A42F9D1244B2C4A13602C4A41
:1001500013602C4B01E0002204C32B4A9342FAD3D4
:10016000264B1B68002B03D1254B1B68002B00D0AE
:10017000FEE700F078F8694601A800F04BFB234C3D
:10018000234BE41AA410002504E0AA00204BD35806
:1001900098470135AC42F8DC1E4C1F4BE41AA41002
:1001A000002504E0AA001C4BD35898470135AC4207
:1001B000F8DC0099019800F01DFA0500174C184B67
:1001C000E41AA41004E0013CA200154BD358984750
:1001D000002CF8DC280000F0F7FAC046BABADECAF4
:1001E000000000207C0000200000002070150008A6
:1001F0008000002078563412325476988000002017
:100200001C01002080000020200100204C0200087A
:100210004C0200084C0200084C0200084C02000886
:040220004C02000884
:1002240070150008000000208000002070150008F0
:1002340000000000000000008000002020010020D9
:080244000000000000000000B2
:10024C0010B500F097FBFA21890000F099FB00F043
:10025C0057FB042000F070FB10BD10B500F004FB40
:10026C00FFF7EEFF00F0CAF910BD000010B50A0050
:10027C000100024800F08AFAFEE7C04608140008A4
:10028C0082B003004000C0180023019304E0C04674
:10029C00C046019B01330193019B8342F7D302B00B
:1002AC007047000070B51420FFF7EAFF0A4CA369F1
:1002BC0080252D022B43A3611420FFF7E1FFA269D7
:1002CC0080231B061343A3611420FFF7D9FFA369F6
:1002DC001D43A56170BDC0460008004810B5040060
:1002EC00454A91698023DB010B43936143B2002B98
:1002FC0046DB9022D205916980231B060B43936148
:10030C00630645D59022D205916980235B010B438E
:10031C009361A30644D5394A916980239B000B4312
:10032C009361E30643D5354A916980235B000B4307
:10033C009361FFF7B7FF230740D59022D20591694F
:10034C0080231B020B43936163073FD59022D20598
:10035C00916980235B010B439361A3073ED5274A28
:10036C00916980239B000B439361E3073DD5234A9E
:10037C00916980235B000B439361FFF793FF10BDE2
:10038C009022D205916980231B020B439361B7E73E
:10039C009022D205916980235B050B439361B8E7EA
:1003AC00164A916980239B040B439361B9E7134A66
:1003BC00916980235B040B439361BAE79022D205C9
:1003CC00916980231B060B439361BDE79022D205F4
:1003DC00916980235B050B439361BEE7074A9169E2
:1003EC0080239B040B439361BFE7044A91698023EC
:1003FC005B040B439361C0E700080048000400480D
:10040C0070B50500002404E0C0B2FFF767FF0134AB
:10041C00E4B228570028F7D170BD000010B50400D5
:10042C00474A91698023DB050B43936143B2002B50
:10043C0049DB9022D205916980231B060B43936103
:10044C00630648D59022D205916980235B010B434A
:10045C009361A30647D53B4A916980239B000B43CC
:10046C009361E30646D5374A916980235B000B43C1
:10047C009361FFF717FF230743D59022D2059169AB
:10048C0080231B020B439361630742D59022D20554
:10049C00916980235B010B439361A30741D5294AE2
:1004AC00916980239B000B439361E30740D5254A58
:1004BC00916980235B000B439361FFF7F3FE2248A5
:1004CC00FFF7DEFE10BD9022D205916980231B023E
:1004DC000B439361B4E79022D205916980235B05AD
:1004EC000B439361B5E7174A916980239B040B4337
:1004FC009361B6E7134A916980235B040B439361C4
:10050C00B7E79022D205916980231B060B439361B8
:10051C00BAE79022D205916980235B050B43936166
:10052C00BBE7084A916980239B040B439361BCE7AA
:10053C00044A916980235B040B439361BDE7C04679
:10054C000008004800040048B80B000010B51B4B15
:10055C005969802292020A435A6159698022D20257
:10056C000A435A615969802212030A435A61902244
:10057C00D20511688223DB050B431360104A116806
:10058C00A023DB020B4313600E4A1168A023DB058A
:10059C000B4313600C48FFF773FE3320FFF73EFF4D
:1005AC003220FFF73BFF0C20FFF738FF2820FFF726
:1005BC0035FF0120FFF732FF10BDC046001002408E
:1005CC0000040048000800483075000000B583B0F6
:1005DC000200044901A800F065FA01A8FFF710FF1A
:1005EC0003B000BD3814000810B5FFF7AFFF7A2038
:1005FC00FFF7ECFFFBE770477047000010B51F4B8F
:10060C005A680C231340042B16D0082B18D0002B3F
:10061C0003D01B4B1B4A1A6002E0194B194A1A6093
:10062C00164B5A6812090F231340174AD35C144A0D
:10063C001168D940116010BD114B144A1A60EFE7D4
:10064C000E4B5C685A68A40C0F210C400234DB6A18
:10065C0019400131D30306D50C4800F091F94443FD
:10066C00074B1C60DCE76201121B93019B1ADB0039
:10067C001C192402024B1C60D2E7C0460010024039
:10068C000400002000127A003C140008006CDC020C
:10069C0070B504000D00154800F078F82168144876
:1006AC0000F074F86168134800F070F8A168124803
:1006BC0000F06CF8E168114800F068F82169104806
:1006CC0000F064F861690F4800F060F8A1690E4809
:1006DC0000F05CF8E1690D4800F058F80C4800F0A7
:1006EC0055F829000B4800F051F870BD4C14000867
:1006FC005C1400086C1400087C1400088C140008AE
:10070C009C140008AC140008BC140008CC1400089D
:10071C00DC140008E414000810B5FFF76DFF10BDE1
:10072C00F0B5CE46474680B585B0040088464356A2
:10073C00002B24D10425281C211CABBE041C4046D4
:10074C0005B0C0BCB946B046F0BD0022A256694601
:10075C00CA5401330134AB42F7D3E946002249466F
:10076C00CA540427381C4946ABBE071C761B002E06
:10077C00E5D03500102E00D910250023EBE70E0034
:10078C00F5E710B5FFF7CCFF10BD00000FB400B5B6
:10079C0083B004AB04CB01938021074800F0CEF961
:1007AC00002803DC03B008BC04B018470100024861
:1007BC00FFF7E7FFF6E7C04684000020FEE70000E5
:1007CC0010B503000D4A1268002A0BD00B4A1068B2
:1007DC00033303229343C318094A934206D8074AAA
:1007EC00136010BD054A07491160EFE700F054F99A
:1007FC000C23036001204042F3E7C04604010020B3
:10080C00001C00202001002001230360014B0B6021
:10081C007047C0460800002010B504000F4B197833
:10082C00FA20800000F0ACF801000D4B186800F0C5
:10083C00A7F800F065F800280DD1032C01D9012090
:10084C000AE0013000222100404200F01DF8054B67
:10085C001C60002000E0012010BDC04610000020EC
:10086C00040000201400002010B5064A1368102163
:10087C000B4313600320FFF7CFFFFFF7BCFE0020F4
:10088C0010BDC0460020024070B504000D000329C5
:10089C0013D8002C16DBA308164EC0339B009959B5
:1008AC0003200440E400FF221000A0408143AD016E
:1008BC002A40A2400A439A5170BD8B210E48FFF783
:1008CC00D5FCE6E70F232340083B9B0806339B002F
:1008DC000A4A944663445A6803200440E400FF210A
:1008EC000800A0408243AD010D40A54015435D605A
:1008FC00E2E7C04600E100E00C15000800ED00E066
:10090C00013880235B0498420FD2094A5060094891
:10091C00036A1B021B0AC02109060B430362002356
:10092C00936007331360002070470120FCE7C0463A
:10093C0010E000E000ED00E010B50400042801D048
:10094C00002807D1042C0BD0084A136804218B43D0
:10095C00136010BD2621FF310548FFF787FCF1E736
:10096C00024A136804210B431360F2E710E000E025
:10097C000C150008014B18687047C0460400002095
:10098C00002243088B4274D303098B425FD3030AC2
:10099C008B4244D3030B8B4228D3030C8B420DD3D5
:1009AC00FF22090212BA030C8B4202D31212090263
:1009BC0065D0030B8B4219D300E0090AC30B8B42A1
:1009CC0001D3CB03C01A5241830B8B4201D38B034F
:1009DC00C01A5241430B8B4201D34B03C01A5241F4
:1009EC00030B8B4201D30B03C01A5241C30A8B4237
:1009FC0001D3CB02C01A5241830A8B4201D38B0222
:100A0C00C01A5241430A8B4201D34B02C01A5241C5
:100A1C00030A8B4201D30B02C01A5241CDD2C30937
:100A2C008B4201D3CB01C01A524183098B4201D3B3
:100A3C008B01C01A524143098B4201D34B01C01A9E
:100A4C00524103098B4201D30B01C01A5241C30816
:100A5C008B4201D3CB00C01A524183088B4201D385
:100A6C008B00C01A524143088B4201D34B00C01A71
:100A7C005241411A00D20146524110467047FFE7DD
:100A8C0001B5002000F006F802BDC0460029F7D0E1
:100A9C0076E770477047C046014B18687047C046F0
:100AAC00180000200EB400B50B499CB01DAB029091
:100ABC000690079104910948094904CB05910068F7
:100ACC0002A9019300F0A8F80023029A13701CB03D
:100ADC0008BC03B01847C046FFFFFF7F180000207A
:100AEC000802FFFF30B5140005001A009BB0002C63
:100AFC0005DA8B230360012040421BB030BD8223FA
:100B0C0068469B0083810023009104919C4200D095
:100B1C00631E02930593012369465B42CB81280037
:100B2C001E9B00F079F8431C01DA8B232B60002C00
:100B3C00E3D00023009A1370DFE7000007B50093A1
:100B4C0013000A00010002480068FFF7CBFF0EBD3E
:100B5C0018000020F0B58E6885B007000C000392D9
:100B6C0001939E423CD890238A89DB001A4234D0F0
:100B7C000969236860695B1A029303234343DD0F01
:100B8C00ED18019B029801331B186D10AB4200D974
:100B9C001D00530532D52900380000F053FB061E0A
:100BAC0009D10C233B6040230120A289404213430E
:100BBC00A38105B0F0BD029A216900F0BAFAA389AD
:100BCC00144A1A4080231343A381029B2661F61812
:100BDC0026606561019EED1AA560019B9E4200D9BD
:100BEC00019E32000399206800F0ACFAA368002043
:100BFC009B1BA36023689E192660DAE72A00380045
:100C0C0000F096FB061EE0D13800216900F0AEFA28
:100C1C00C7E7C0467FFBFFFFF0B5A1B003901D00F6
:100C2C008B890F0016001B0611D50B69002B0ED1FA
:100C3C00402100F007FB38603861002805D10C23F7
:100C4C00039A0138136021B0F0BD40237B6100236F
:100C5C0008AC6361203363761033A37607953500B7
:100C6C002B78002B01D0252B47D1AB1B0593B5421C
:100C7C000CD0320039000398FFF76CFF431C00D1F5
:100C8C00AEE06269059B9446634463612B78002B4C
:100C9C0000D1A5E0012200235242626004A9543223
:100CAC0052186E1C2360E360A3601370A3650522C9
:100CBC003178544800F032FA751C00281FD1226894
:100CCC00D30604D5532304A95B18202119701307EC
:100CDC0004D5532304A95B182B21197033782A2BC4
:100CEC0016D0350000210A20E3682A786E1C303AB1
:100CFC00092A4ED9002911D117E00135B0E7414B33
:100D0C002268C01A0123834013432E002360CEE7D0
:100D1C00079B191D1B680791002B01DB0B9304E04B
:100D2C005B42E3600223134323602B782E2B0AD102
:100D3C006B782A2B35D1079B02351A1D1B6807923D
:100D4C00002B2BDB0993304E03223000297800F066
:100D5C00E5F9002806D04023801B8340226801352A
:100D6C00134323602978062228486E1C217600F054
:100D7C00D5F900283CD0264B002B25D10722079B08
:100D8C0007339343083307936369049A9B18636191
:100D9C0065E74343350001219B18A6E701235B421D
:100DAC00D0E700230A201A000135636029786E1CF5
:100DBC003039092903D9002BC5D00992C3E7424326
:100DCC00350001235218F1E707AB00933A002100DC
:100DDC00104B039800E000BF0490049B0133D3D167
:100DEC00BB890D985B0600D42DE7012040422AE711
:100DFC0007AB00933A002100064B039800F07CF8F7
:100E0C00EAE7C0463D1500084315000847150008E1
:100E1C0000000000610B0008F7B5150001938A680B
:100E2C000B690C000090934200DA130022002B6037
:100E3C0043321278002A01D001332B6023689B06C1
:100E4C0002D52B6802332B602268062317001F4043
:100E5C001A4227D0230043331B785A1E9341226831
:100E6C00920630D4220001990098089E4332B04774
:100E7C00431C25D0062320682A68E168002503401E
:100E8C00042B03D18D1AEB43DB171D40A368226999
:100E9C00934201DD9B1AED180027BD4220D10020A2
:100EAC0010E00137E3682A689B1ABB42D2DD2200AE
:100EBC00012301990098089E1932B047431CF0D1C8
:100ECC0001204042FEBD3020E11843310870210062
:100EDC005A1C45310978A218433202331170C1E70C
:100EEC002200012301990098089E1A32B047431C36
:100EFC00E6D00137D1E70000F0B58BB006920A00BE
:100F0C0043320793059004920A7E0C00109B782ABA
:100F1C0007D8622A09D8002A00D1C1E0582A00D18A
:100F2C008CE026004236327022E01000633815281F
:100F3C00F7D800F059FA16001F00F6FFF6FFF6FF7F
:100F4C00F6FF1F00F6FFF6FFF6FFF6FFA8003600CF
:100F5C009A00F6FFF6FFB900F6FF3600F6FFF6FF33
:100F6C009E0026001A684236111D196013683370F2
:100F7C000123A7E0086819680A1D05060BD50D6842
:100F8C001A60002D03DA2D23049A6D421370614B05
:100F9C000A2703931BE00D681A604106F1D52DB2A8
:100FAC00EFE70D681968081D18602E0601D50D684D
:100FBC0003E06D06FBD50D68ADB2564B08270393C5
:100FCC006F2A00D002372300002243331A70636863
:100FDC00A360002B03DB0422216891432160002DC8
:100FEC0002D1049E002B0CD0049E28003900FFF780
:100FFC004DFD039B013E5B5C33702B0005009F4253
:10100C00F3D9082F09D12368DB0706D56368226959
:10101C00934202DC3023013E3370049B9B1B236103
:10102C00079B210000930598069B09AAFFF7F4FE85
:10103C00431C4CD1012040420BB0F0BD45310A702D
:10104C00344A03921A68216820CA1A60080616D519
:10105C00CB0702D52023194321601027002DB2D1D4
:10106C00202322689A432260ADE7202209680A43B4
:10107C0022602200782145321170274AE1E74806A8
:10108C00E6D5ADB2E4E71A680D68101D4969186021
:10109C0013682E0601D5196002E06D06FBD5198088
:1010AC000023049E2361BBE71A68111D19601668A2
:1010BC0000213000626800F031F8002801D0801B5C
:1010CC006060636823610023049A1370A8E72369A6
:1010DC00320006990598079DA847431CAAD023689F
:1010EC009B0715D4099BE0689842A5DA1800A3E782
:1010FC002200012306990598079E1932B047431C1C
:10110C0098D00135E368099A9B1AAB42F0DCE9E709
:10111C000025F7E74E1500085F150008C9B28218C4
:10112C00904201D10020704703788B42FBD00130F4
:10113C00F6E7002310B59A4200D110BDCC5CC45424
:10114C000133F8E710B5884202D98B18984203D3C3
:10115C00002307E08B5C8354013AFBD210BDCC5CBE
:10116C00C45401339A42FAD1F8E7000070B5050077
:10117C00002910D00C1F2368002B00DAE41828007B
:10118C0000F018F91D4A1368002B05D16360146038
:10119C00280000F017F970BDA34208D92168601827
:1011AC008342F3D118685B6841182160EEE71A009E
:1011BC005B68002B01D0A342F9D911685018A042EA
:1011CC000BD120680918501811608342E0D11868BF
:1011DC005B68411811605360DAE7A04202D90C2316
:1011EC002B60D5E721686018834203D118685B68CF
:1011FC004118216063605460CAE7C04610010020AA
:10120C0070B50F4E0D0031680400002902D100F0BA
:10121C00BFF830602900200000F0BAF8431C0AD057
:10122C000323C51C9D43A84207D0291A200000F0B7
:10123C00AFF8431C01D101256D42280070BDC0469A
:10124C0014010020F7B50322CB1C9343083306008E
:10125C001F000C2B32D20C27B94231D8300000F0D1
:10126C00A9F8324D2B681C00002C2ED1390030000F
:10127C00FFF7C6FF0400431C1ED12C682500002D6F
:10128C004AD123682900E3183000019300F080F85C
:10129C00019B834243D123680337FF1A03239F43E7
:1012AC0008370C2F00D20C2739003000FFF7A8FFAD
:1012BC00431C34D02368DF19276013E0002BCBDAF2
:1012CC000C23002533602800FEBD2268D11B20D4DE
:1012DC000B2917D9E2192760A34211D12A60636840
:1012EC00116053603000250000F06CF807220B35BC
:1012FC00231D9543EA1A9D42E5D05B1BA350E2E700
:10130C005A60ECE76268A34201D12A60EAE75A60AE
:10131C00E8E723006468A7E72C006D68AFE70C23AF
:10132C003000336000F04EF8CDE7C04610010020CD
:10133C00F7B507000E001400002905D11100FFF7C6
:10134C0081FF05002800FEBD002A03D1FFF70EFF28
:10135C002500F7E700F03EF80190844203D83500F1
:10136C004308A342EED321003800FFF76BFF051EA4
:10137C00E8D0019B22009C4200D91A0031002800C1
:10138C00FFF7D7FE31003800FFF7F0FEDAE7000078
:10139C00002370B5064D040008002B60FFF710FA0F
:1013AC00431C03D12B68002B00D0236070BDC046BA
:1013BC000801002010B5024800F014F810BDC0461A
:1013CC001801002010B5024800F00DF810BDC04601
:1013DC00180100200B1F1B68181F002B01DA0B587B
:1013EC00C01870477047704703B4714649084000F5
:1013FC004900095E49008E4403BC704757726F6EFA
:10140C006720706172616D65746572732076616CB2
:10141C0075653A2066696C65202573206F6E206CAB
:10142C00696E652025640D0A00000000256400002B
:10143C000000000000000000010203040607080978
:10144C00537461636B206672616D653A0A0000002B
:10145C00205230203D2020253038580A0000000052
:10146C00205231203D2020253038580A0000000041
:10147C00205232203D2020253038580A0000000030
:10148C00205233203D2020253038580A000000001F
:10149C0020523132203D20253038580A00000000FF
:1014AC00204C52203D2020253038580A00000000E6
:1014BC00205043203D2020253038580A00000000E1
:1014CC0020505352203D20253038580A000000008F
:1014DC004D6973630A000000204C522F4558435F3E
:1014EC0052455455524E3D20253038580A000000C4
:1014FC005B486172644661756C745D0A00000000A3
:10150C002E2E5C73797374656D5C7372635C73748B
:10151C006D333266302D68616C5C73746D3332667A
:10152C003078785F68616C5F636F727465782E6376
:10153C0000232D302B2000686C4C006566674546F7
:10154C004700303132333435363738394142434431
:10155C0045460030313233343536373839616263C1
:04156C00646566004C
:101570007856341200127A000C010020000000009E
:1015800001FFFFFF040000001C000020000000001D
:10159000000000000000000000000000000000004B
:1015A000000000000000000000000000000000003B
:1015B000000000000000000000000000000000002B
:1015C000000000000000000000000000000000001B
:1015D000000000000000000000000000000000000B
:1015E0000000000000000000000000003254769867
:0400000508000111DD
:00000001FF
